:100000000C945A010C9484010C9484010C94840186
:100010000C9484010C9484010C9484010C9484014C
:100020000C9484010C9484010C9484010C9484013C
:100030000C9484010C9484010C9484010C9484012C
:100040000C9484010C9484010C9484010C9484011C
:100050000C9484010C9484010C9484010C94090781
:100060000C9484010C94D6060C94FE050C94840127
:100070000C9484010C9484010C9484010C948401EC
:100080000C9484010C9484010C9484010C948401DC
:100090000C94A3060C94BF050C9484010C94840169
:1000A0000C9484010C9484010C9484010C948401BC
:1000B0000C9484010C9484010C9484010C948401AC
:1000C0000C9484010C9484010C9484010C947006AB
:1000D0000C9480050C9484010C943D060C9441050D
:1000E0000C948401ED02F002E302E7022703F4021C
:1000F000F802FE02020306030C0310031403270395
:100100001A031E0322039F03A403A903B3032C04B1
:10011000BD03C503CD03D703E103EB03FA030404D6
:100120002C040E041804220407634236B79BD8A798
:100130001A39685618AEBAAB558C1D3CB7CC57630C
:10014000BD6DEDFD753EF6177231BF000000803FBA
:1001500008000000BE922449123EABAAAA2ABECDD6
:10016000CCCC4C3E00000080BEABAAAAAA3E000048
:100170000000BF000000803F000000000008417840
:10018000D3BB4387D1133D190E3CC3BD4282AD2B77
:100190003E68EC8276BED98FE1A93E4C80EFFFBE6F
:1001A00001C4FF7F3F000000000000002100240088
:1001B00027002A002D003000330001010000040157
:1001C00007010A0100002200250028002B002E0054
:1001D0003100340002010000050108010B01050592
:1001E0000505070508080808020202020A0A0808AD
:1001F00004040404010101010101010103030303DB
:1002000003030303040707070C0C0C0C0C0C0C0C69
:100210000202020206060606060606060B0B0B0B7A
:100220000B0B0B0B0102102020080810204010209F
:1002300040800201020108040201010204081020AA
:1002400040808040201008040201800402018040A8
:100250002010080402010804020101020408102011
:10026000408001020408102040800000090A0208B2
:100270000B0C0D0706030401000000000000000045
:10028000000000000000000000000000000000006E
:1002900000000000000011100F000000000000002E
:1002A000000000000000000000000000000000004E
:1002B0005307D20A11241FBECFEFD1E2DEBFCDBF5C
:1002C00012E0A0E0B2E0E8E3F1E200E00BBF02C020
:1002D00007900D92A831B107D9F724E0A8E1B2E068
:1002E00001C01D92A93DB207E1F711E0C9E5D1E0D7
:1002F00004C02197FE010E948610C835D107C9F7B6
:100300000E9428080C94D80A0C9400000F931F93A5
:10031000CF93DF93FC01A685B7858D01005C1F4F4D
:10032000E8018881998101968F739927AD014E5B11
:100330005F4FEA012881398128173907D1F3E80195
:1003400028813981A20FB31F6C93A685B785A05C65
:10035000BF4F11969C938E93A689B7892C9181E00B
:1003600090E0078C02C0880F991F0A94E2F7822B55
:100370008C9381E081A30488F589E02D80818064DD
:10038000808381E090E0DF91CF911F910F910895DC
:10039000FC0181A1882329F0A489B5898C9186FF6D
:1003A000FBCF11A20895FC01A485B585FD01E05C99
:1003B000FF4F208131813296808191812817390742
:1003C00079F080819181A80FB91F8C9120813181B2
:1003D0002F5F3F4F2F7333273183208390E00895A1
:1003E0008FEF9FEF08952FB7F8948091220290919C
:1003F0002302A0912402B09125022FBF8093B40460
:100400009093B504A093B604B093B7048CEA94E03B
:100410000E94D30197FF26C02FB7F8948091220243
:1004200090912302A0912402B09125022FBF409108
:10043000B4045091B5046091B6047091B704841B64
:10044000950BA60BB70B4091B0045091B10460918D
:10045000B2047091B30484179507A607B707B0F2EA
:100460008FEF9FEF0895DC011C96ED91FC911D9795
:10047000DF01A05CBF4F2D913C91119712968D9199
:100480009C9111972817390739F08D919C91E80FAD
:10049000F91F808190E008958FEF9FEF0895FC0190
:1004A00024853585F901E05CFF4F8081918132968A
:1004B00020813181821B930B8F73992708958CEAD9
:1004C00094E00E944F0282E094E00E944F0288E58F
:1004D00093E00E944F028EEA92E00C944F02FB01DF
:1004E000E05CFF4F20813181DB01AE5BBF4F4D915E
:1004F0005C912F5F3F4F2F7333274217530741F013
:1005000040815181DB01A40FB51F8C93318320837F
:1005100008950895CF92DF92EF92FF920F931F9369
:10052000CF93DF936C01EB017B01E40EF51E00E03D
:1005300010E0CE15DF0561F06991D601ED91FC91D7
:100540000190F081E02DC6010995080F191FF1CF28
:10055000C801DF91CF911F910F91FF90EF90DF9035
:10056000CF900895FC01248135816217730720F430
:1005700080819181009729F410921D028DE192E013
:100580000895860F971F0895362F90E0FC01E659D5
:10059000FD4F4491FC01EC5DFD4F2491FC01E252C2
:1005A000FE4F8491882309F466C0442309F44FC0A8
:1005B00050E0FA013197E131F10508F048C0EE58FA
:1005C000FF4F0C948610909180009F7703C090910C
:1005D00080009F7D909380003AC094B59F7702C0C1
:1005E00094B59F7D94BD33C09091B0009F7703C0B8
:1005F0009091B0009F7D9093B00029C090919000A1
:100600009F7707C0909190009F7D03C090919000CC
:10061000977F909390001BC09091A0009F7707C098
:100620009091A0009F7D03C09091A000977F909330
:10063000A0000DC0909120019F7707C090912001EC
:100640009F7D03C090912001977F90932001E82F18
:10065000F0E0EE0FFF1FEC53FE4FA591B4919FB752
:10066000F894311104C08C912095282302C0EC919C
:100670002E2B2C939FBF0895CF93DF9390E0FC0126
:10068000EC5DFD4F2491FC01E252FE4F84918823E2
:1006900061F190E0880F991FFC01E655FE4FC5916E
:1006A000D491FC01EC53FE4FA591B491611109C0A6
:1006B0009FB7F8948881209582238883EC912E231C
:1006C0000BC0623061F49FB7F8948881322F309567
:1006D00083238883EC912E2B2C939FBF06C08FB76A
:1006E000F894E8812E2B28838FBFDF91CF91089556
:1006F0001F93CF93DF93182FEB0161E00E943C031F
:10070000209711F460E004C0CF3FD10539F461E0D7
:10071000812FDF91CF911F910C94C402E12FF0E063
:10072000E659FD4FE4918E2F90E0FC013197E131C5
:10073000F10508F091C0ED57FF4F0C94861084B579
:10074000806884BDC7BD8DC084B5806284BDC8BDCE
:1007500088C080918000806880938000D093890059
:10076000C09388007EC0809180008062809380006A
:10077000D0938B00C0938A0074C08091B0008068D1
:100780008093B000C093B3006CC08091B0008062D1
:100790008093B000C093B40064C0809190008068E2
:1007A00080939000D0939900C09398005AC0809194
:1007B0009000806280939000D0939B00C0939A0039
:1007C00050C080919000886080939000D0939D00ED
:1007D000C0939C0046C08091A00080688093A000D8
:1007E0008091A0008F7B8093A000D093A900C0933C
:1007F000A80037C08091A00080628093A000D093B1
:10080000AB00C093AA002DC08091A00088608093A7
:10081000A000D093AD00C093AC0023C08091200114
:10082000806880932001D0932901C093280119C0CA
:1008300080912001806280932001D0932B01C0938E
:100840002A010FC080912001886080932001D093FD
:100850002D01C0932C0105C0C038D1050CF057CF35
:1008600051CFDF91CF911F9108953FB7F8948091B8
:10087000190290911A02A0911B02B0911C0226B598
:10088000A89B05C02F3F19F00196A11DB11D3FBFC8
:10089000BA2FA92F982F8827820F911DA11DB11D56
:1008A000BC01CD0142E0660F771F881F991F4A9552
:1008B000D1F70895CF92DF92EF92FF92CF93DF931B
:1008C0006B017C010E943504EB01C114D104E104E9
:1008D000F10479F00E9435046C1B7D0B683E734077
:1008E000A0F381E0C81AD108E108F108C851DC4F33
:1008F000ECCFDF91CF91FF90EF90DF90CF900895F4
:100900000F931F93CF93DF938C01EB0197FF0DC0E3
:1009100061E08AE10E94C40260E08CE10E94C402AE
:1009200066277727601B710B09C060E08AE10E948F
:10093000C40261E08CE10E94C402B80186E00E941A
:100940007803D7FF0DC061E08EE10E94C40260E031
:1009500080E20E94C402662777276C1B7D0B09C0CA
:1009600060E08EE10E94C40261E080E20E94C40265
:10097000BE0187E0DF91CF911F910F910C94780316
:100980000F931F93CF93DF93EC0188819981009798
:1009900029F02A813B812617370788F48B016F5F86
:1009A0007F4F0E94FC0B009761F0998388831B8323
:1009B0000A832C813D81232B11F4FC01108281E0FC
:1009C00001C080E0DF91CF911F910F910895EF92C8
:1009D000FF920F931F93CF93DF9300D0CDB7DEB775
:1009E0008C0169831A82FC01E480F580FFEFEF1A25
:1009F000FF0AB7010E94C004882381F0F80120811A
:100A0000318184819581BE016F5F7F4F820F931F7B
:100A10000E94EA0CF801F582E48281E00F900F90C9
:100A2000DF91CF911F910F91FF90EF900895CF9399
:100A3000DF93EC01198218821B821A821D821C82AC
:100A40001E8260E070E00E94C0042881398181111B
:100A50000FC02115310519F0C9010E94730B1982CD
:100A600018821D821C821B821A82DF91CF91089509
:100A70001D821C8266E172E0C901DF91CF910C9466
:100A8000EA0C1F920F920FB60F9211240BB60F9221
:100A90002F933F938F939F93EF93FF932091660241
:100AA0003091670280916802909169022817390796
:100AB00031F4809131018F7D8093310114C0E09138
:100AC0006802F0916902EA5DFD4F20818091680221
:100AD0009091690201968F73992790936902809390
:100AE000680220933601FF91EF919F918F913F9182
:100AF0002F910F900BBE0F900FBE0F901F90189567
:100B00001F920F920FB60F9211240BB60F922F93D4
:100B10003F938F939F93EF93FF9320911003309116
:100B2000110380911203909113032817390731F4B0
:100B30008091D1008F7D8093D10014C0E091120389
:100B4000F0911303E053FD4F2081809112039091A7
:100B5000130301968F7399279093130380931203C5
:100B60002093D600FF91EF919F918F913F912F910C
:100B70000F900BBE0F900FBE0F901F9018951F92F5
:100B80000F920FB60F9211240BB60F922F933F9333
:100B90008F939F93EF93FF932091BA033091BB0300
:100BA0008091BC039091BD032817390731F48091DF
:100BB000C9008F7D8093C90014C0E091BC03F091FF
:100BC000BD03E658FC4F20818091BC039091BD038A
:100BD00001968F7399279093BD038093BC03209354
:100BE000CE00FF91EF919F918F913F912F910F90A8
:100BF0000BBE0F900FBE0F901F9018951F920F9273
:100C00000FB60F9211240BB60F922F933F938F9331
:100C10009F93EF93FF93209164043091650480913A
:100C20006604909167042817390731F48091C10058
:100C30008F7D8093C10014C0E0916604F091670439
:100C4000EC5DFB4F208180916604909167040196D2
:100C50008F73992790936704809366042093C6004E
:100C6000FF91EF919F918F913F912F910F900BBE2C
:100C70000F900FBE0F901F9018951F920F920FB6F6
:100C80000F9211240BB60F922F933F934F935F93C4
:100C90006F937F938F939F93AF93BF93EF93FF9344
:100CA0008091300182FD07C0809136016AE672E0D2
:100CB0000E946F0202C080913601FF91EF91BF91B7
:100CC000AF919F918F917F916F915F914F913F91E4
:100CD0002F910F900BBE0F900FBE0F901F90189585
:100CE0001F920F920FB60F9211240BB60F922F93F3
:100CF0003F934F935F936F937F938F939F93AF93A4
:100D0000BF93EF93FF938091D00082FD07C0809145
:100D1000D60064E173E00E946F0202C08091D600A9
:100D2000FF91EF91BF91AF919F918F917F916F91C3
:100D30005F914F913F912F910F900BBE0F900FBE7F
:100D40000F901F9018951F920F920FB60F921124BB
:100D50000BB60F922F933F934F935F936F937F93B5
:100D60008F939F93AF93BF93EF93FF938091C800AE
:100D700082FD07C08091CE006EEB73E00E946F028F
:100D800002C08091CE00FF91EF91BF91AF919F91F2
:100D90008F917F916F915F914F913F912F910F9024
:100DA0000BBE0F900FBE0F901F9018951F920F92C1
:100DB0000FB60F9211240BB60F922F933F934F93C0
:100DC0005F936F937F938F939F93AF93BF93EF93B3
:100DD000FF938091C00082FD07C08091C60068E645
:100DE00074E00E946F0202C08091C600FF91EF91F3
:100DF000BF91AF919F918F917F916F915F914F9133
:100E00003F912F910F900BBE0F900FBE0F901F9030
:100E100018951F920F920FB60F9211242F933F93A4
:100E20008F939F93AF93BF9380912202909123025F
:100E3000A0912402B09125023091180223E0230FE3
:100E40002D3720F40196A11DB11D05C026E8230F02
:100E50000296A11DB11D2093180280932202909347
:100E60002302A0932402B09325028091190290914D
:100E70001A02A0911B02B0911C020196A11DB11D86
:100E80008093190290931A02A0931B02B0931C0244
:100E9000BF91AF919F918F913F912F910F900FBE76
:100EA0000F901F901895CF92DF92EF92FF92ECEA8D
:100EB000F4E01382128288EEC82E83E0D82EE12C53
:100EC000F12CC482D582E682F7826AE072E07183F7
:100ED000608388E694E09587848784E294E097872E
:100EE000868785EC90E0918B808B84EC90E0938BEF
:100EF000828B80EC90E0958B848B81EC90E0978BDB
:100F0000868B82EC90E0918F808F86EC90E0938FBF
:100F1000828F44E0448F33E0358F27E0268F95E0C1
:100F2000978F81E080A3E2E0F4E013821282C48212
:100F3000D582E682F78271836083AEEBB3E0B5873A
:100F4000A487AAE7B3E0B787A687ADECB0E0B18B82
:100F5000A08BACECB0E0B38BA28BA8ECB0E0B58B6F
:100F6000A48BA9ECB0E0B78BA68BAAECB0E0B18F54
:100F7000A08FAEECB0E0B38FA28F448F358F268F59
:100F8000978F80A3E8E5F3E013821282C482D582B2
:100F9000E682F78271836083A4E1B3E0B587A4871A
:100FA000A0EDB2E0B787A687A5EDB0E0B18BA08B2E
:100FB000A4EDB0E0B38BA28BA0EDB0E0B58BA48B19
:100FC000A1EDB0E0B78BA68BA2EDB0E0B18FA08F02
:100FD000A6EDB0E0B38FA28F448F358F268F978F09
:100FE00080A3EEEAF2E013821282C482D582E68206
:100FF000F782718360836AE672E07587648766E2D0
:1010000072E07787668765E371E0718B608B64E3DC
:1010100071E0738B628B60E371E0758B648B61E3CD
:1010200071E0778B668B62E371E0718F608F66E3AE
:1010300071E0738F628F448F358F268F978F80A3D7
:101040008EEC94E0FF90EF90DF90CF900C9417051A
:10105000CF93DF93CDB7DEB765970FB6F894DEBFB9
:101060000FBECDBF789484B5826084BD84B58160A5
:1010700084BD85B5826085BD85B5816085BD809163
:101080006E00816080936E001092810080918100DB
:1010900082608093810080918100816080938100D3
:1010A000809180008160809380008091B100846095
:1010B0008093B1008091B00081608093B0008091F6
:1010C0009100826080939100809191008160809373
:1010D0009100809190008160809390008091A100A8
:1010E00082608093A1008091A10081608093A10023
:1010F0008091A00081608093A00080912101826096
:101100008093210180912101816080932101809150
:10111000200181608093200180917A008460809317
:101120007A0080917A00826080937A0080917A00C0
:10113000816080937A0080917A00806880937A0041
:101140001092C100E091C004F091C10481E090E0F0
:101150009C010090CC0402C0220F331F0A94E2F7D6
:101160002083E091BC04F091BD041082E091BE04A4
:10117000F091BF042FEC20831092CD04E091C204C3
:10118000F091C30440819C010090C80402C0220F6A
:10119000331F0A94E2F7242B2083E091C204F091DC
:1011A000C30440819C010090C90402C0220F331F78
:1011B0000A94E2F7242B2083E091C204F091C30447
:1011C00040819C010090CA0402C0220F331F0A9480
:1011D000E2F7242B2083E091C204F091C304208124
:1011E0000090CB0402C0880F991F0A94E2F7809503
:1011F0008223808361E08AE00E943C0361E08AE10F
:101200000E943C0361E08CE10E943C0361E08EE1BE
:101210000E943C0361E080E20E943C0361E086E0C2
:101220000E943C0361E087E00E943C0360E082E0B2
:101230000E943C0360E082E10E943C0360E083E0A6
:101240000E943C0360E083E10E943C0361E08AE08D
:101250000E94C40268EE73E080E090E00E945A04AD
:1012600060E08AE00E94C4028CEA94E00E944F028F
:10127000181619060CF089C1CE0101960E941705B7
:101280000E94F30197FD06C0682FCE0101960E94CF
:10129000E704F6CF8091CE049091CF040097B1F08F
:1012A0004091D0045091D1042D813E8142175307C3
:1012B00058F069817A810E94EA0C8D819E81909319
:1012C000D3048093D20416C00E94730B89819A8143
:1012D0009093CF048093CE048B819C819093D10412
:1012E0008093D0048D819E819093D3048093D20407
:1012F0001A82198289819A810E94730B188A1F862B
:101300001A8A198A1C8A1B8A1D8A0091CE041091A0
:10131000CF040115110501F1E090D204F090D3043F
:10132000B701CE010F960E94C0042F853889811124
:101330000DC02115310519F0C9010E94730B188ADF
:101340001F861C8A1B8A1A8A198A06C0FC8AEB8AA5
:10135000B801C9010E94EA0CCE0108960E94170547
:10136000CE0101960E94170500E010E0F12C8B8958
:101370009C890817190750F5B801CE010F960E94F5
:10138000B202FC018081803219F40F5F1F4F0EC042
:10139000F1100CC0B801CE010F960E94B202FC0100
:1013A0006081CE0108960E94E7040DC0B801CE010D
:1013B0000F960E94B202FC016081CE0101960E944C
:1013C000E704FF24F3940F5F1F4FD1CFEC84FD841B
:1013D000C12CD12C00E010E0F1E0EF1AF108F7FC8D
:1013E0003DC0B701CE0108960E94B2025C01B60171
:1013F0000D2C000C880B990B0E94960D9B01AC01E3
:1014000060E070E080E291E40E948F0E2B013C01CD
:10141000F5016081062E000C770B60537109072ED1
:10142000000C880B990B0E94960DA30192010E945B
:10143000220E4B015C01B801110F880B990B0E9421
:10144000960D9B01AC01C501B4010E94F20C0E94F3
:101450005E0D8B01FFEFCF1ADF0ABECFCD80DE809D
:10146000A12CB12CE12CF12C81E0C81AD108D7FCB9
:101470003DC0B601CE0101960E94B2024C01B501F9
:101480000B2C000C880B990B0E94960D9B01AC0154
:1014900060E070E080E291E40E948F0E2B013C013D
:1014A000F4016081062E000C770B60537109072E42
:1014B000000C880B990B0E94960DA30192010E94CB
:1014C000220E2B013C01B701FF0C880B990B0E94E7
:1014D000960D9B01AC01C301B2010E94F20C0E9467
:1014E0005E0D7B01FFEFAF1ABF0ABECF10931F0244
:1014F00000931E02F0922102E092200289819A81DB
:101500000E94730B888599850E94730B8F8598893B
:101510000E94730B61E08AE00E94C402B701C80117
:101520000E94800466E970E080E090E00E945A0426
:1015300060E070E080E090E00E94800400E010E055
:101540008091D2049091D3040817190798F48091E0
:10155000CE049091CF04009729F0FC01E00FF11F19
:10156000608101C060E08CEA94E00E9486010F5F18
:101570001F4FE6CF6DE08CEA94E00E9486016AE09E
:101580008CEA94E00E9486010AC060E08AE00E9432
:10159000C40260E070E080E090E00E9480040E945D
:1015A0005F0262CE8091CE049091CF040C94730BB5
:1015B000F8940C948F100F931F93CF93DF93823086
:1015C000910510F482E090E0E091D704F091D80406
:1015D00020E030E0A0E0B0E0309719F14081518187
:1015E0000281138148175907C8F08417950769F4D9
:1015F000109731F012960C93129713961C9327C0F4
:101600000093D7041093D80422C02115310519F096
:101610004217530718F49A01BD01EF01DF01F801E9
:10162000DBCF21153105F9F0281B390B24303105AA
:1016300080F48A819B816115710521F0FB01938300
:10164000828304C09093D8048093D704FE0132961D
:1016500044C0FE01E20FF31F8193919322503109A0
:10166000398328833AC02091D5043091D604232BA6
:1016700041F420910202309103023093D60420936A
:10168000D50420910002309101022115310541F469
:101690002DB73EB74091040250910502241B350B33
:1016A000E091D504F091D604E217F307A0F42E1BC5
:1016B0003F0B2817390778F0AC014E5F5F4F2417B6
:1016C000350748F04E0F5F1F5093D6044093D50462
:1016D0008193919302C0E0E0F0E0CF01DF91CF91E0
:1016E0001F910F910895CF93DF93009709F481C064
:1016F000FC01329713821282A091D704B091D804D2
:10170000109781F420813181820F931F2091D5049D
:101710003091D6042817390751F5F093D604E09399
:10172000D50467C0ED0120E030E0CE17DF0740F4BC
:101730004A815B819E0141155105F1F0EA01F5CF27
:10174000D383C28340815181840F951FC817D90765
:1017500059F488819981840F951F02969183808323
:101760008A819B81938382832115310529F4F0932B
:10177000D804E093D7043DC0E901FB83EA83499193
:101780005991C40FD51FEC17FD0761F48081918139
:10179000840F951F0296E901998388838281938142
:1017A0009B838A83E0E0F0E012968D919C911397E1
:1017B000009719F0FD01DC01F7CF8D919C911197F5
:1017C0009D012E5F3F4F820F931F2091D5043091D2
:1017D000D6042817390769F4309729F41092D804F1
:1017E0001092D70402C013821282B093D604A09341
:1017F000D504DF91CF9108956F927F928F929F923F
:10180000AF92BF92CF92DF92EF92FF920F931F930E
:10181000CF93DF93009789F4CB01DF91CF911F9194
:101820000F91FF90EF90DF90CF90BF90AF909F907F
:101830008F907F906F900C94DB0AFC01E60FF71FEE
:101840009C0122503109E217F30708F4A9C0EC010A
:10185000D9010D911C91119706171707B0F00530AB
:10186000110508F49BC0C80104978617970708F470
:1018700095C002501109061B170B019311936D932C
:101880007C93CF010E94730B89C05B01A01AB10A3F
:101890004C01800E911EA091D704B091D804612C08
:1018A000712CE12CF12C109709F446C08D919C917C
:1018B0001197A815B905B1F56C0142E0C40ED11C11
:1018C000CA14DB0478F14C018A189B08640142E0D9
:1018D000C40ED11C1296BC9012971396AC91B5E031
:1018E000CB16D10440F0B282A38391828082D901C9
:1018F0006D937C9309C00E5F1F4F800F911FF901FC
:1019000091838083EB2DFA2FE114F10431F0D7019C
:101910001396FC93EE93129741C0F093D804E09392
:10192000D7043CC06816790608F43C017D01129684
:101930000D90BC91A02DB7CF8091D5049091D60485
:1019400088169906E1F466167706C8F480910002BD
:1019500090910102009741F48DB79EB74091040227
:1019600050910502841B950BE817F907C8F4F09312
:10197000D604E093D504F901718360830FC0CB01D5
:101980000E94DB0A7C01009759F0A801BE010E9469
:10199000E10CCE010E94730BC70104C0CE0102C04E
:1019A00080E090E0DF91CF911F910F91FF90EF9039
:1019B000DF90CF90BF90AF909F908F907F906F906F
:1019C0000895FB01DC0102C001900D92415050408E
:1019D000D8F70895FB01DC0101900D920020E1F79A
:1019E00008955058BB27AA270E94090D0C94E80DB2
:1019F0000E94DA0D38F00E94E10D20F039F49F3F8B
:101A000019F426F40C94D70D0EF4E095E7FB0C9432
:101A1000D10DE92F0E94F90D58F3BA176207730729
:101A20008407950720F079F4A6F50C941B0E0EF4AC
:101A3000E0950B2EBA2FA02D0B01B90190010C01DE
:101A4000CA01A0011124FF27591B99F0593F50F4F6
:101A5000503E68F11A16F040A22F232F342F44274E
:101A6000585FF3CF469537952795A795F040539546
:101A7000C9F77EF41F16BA0B620B730B840BBAF016
:101A80009150A1F0FF0FBB1F661F771F881FC2F781
:101A90000EC0BA0F621F731F841F48F48795779595
:101AA0006795B795F7959E3F08F0B0CF9395880F4F
:101AB00008F09927EE0F9795879508950E94650D78
:101AC0006894B1110C941C0E08950E94010E88F0C8
:101AD0009F5798F0B92F9927B751B0F0E1F0660FF2
:101AE000771F881F991F1AF0BA95C9F714C0B13033
:101AF00091F00E941B0EB1E008950C941B0E672F0D
:101B0000782F8827B85F39F0B93FCCF38695779561
:101B10006795B395D9F73EF490958095709561954A
:101B20007F4F8F4F9F4F0895E89409C097FB3EF475
:101B300090958095709561957F4F8F4F9F4F99231A
:101B4000A9F0F92F96E9BB279395F6958795779598
:101B50006795B795F111F8CFFAF4BB0F11F460FF58
:101B60001BC06F5F7F4F8F4F9F4F16C0882311F0B0
:101B700096E911C0772321F09EE8872F762F05C0C4
:101B8000662371F096E8862F70E060E02AF09A955F
:101B9000660F771F881FDAF7880F9695879597F954
:101BA000089597F99F6780E870E060E008959FEFDF
:101BB00080EC089500240A941616170618060906E4
:101BC000089500240A9412161306140605060895B3
:101BD000092E0394000C11F4882352F0BB0F40F43B
:101BE000BF2B11F460FF04C06F5F7F4F8F4F9F4F7B
:101BF000089557FD9058440F551F59F05F3F71F0FD
:101C00004795880F97FB991F61F09F3F79F0879563
:101C10000895121613061406551FF2CF4695F1DFEC
:101C200008C0161617061806991FF1CF869571057C
:101C3000610508940895E894BB2766277727CB01B0
:101C400097F908950E94350E0C94E80D0E94DA0D64
:101C500038F00E94E10D20F0952311F00C94D10D85
:101C60000C94D70D11240C941C0E0E94F90D70F3E6
:101C7000959FC1F3950F50E0551F629FF001729F31
:101C8000BB27F00DB11D639FAA27F00DB11DAA1F40
:101C9000649F6627B00DA11D661F829F2227B00D8D
:101CA000A11D621F739FB00DA11D621F839FA00D18
:101CB000611D221F749F3327A00D611D231F849F68
:101CC000600D211D822F762F6A2F11249F575040BF
:101CD0009AF0F1F088234AF0EE0FFF1FBB1F661F3A
:101CE000771F881F91505040A9F79E3F510580F003
:101CF0000C94D10D0C941C0E5F3FE4F3983ED4F38A
:101D0000869577956795B795F795E7959F5FC1F7A6
:101D1000FE2B880F911D9695879597F90895FA01E6
:101D2000EE0FFF1F309621053105A1F161157105F8
:101D300061F48038BFE39B0749F1689490388105CE
:101D400061F08038BFEF9B0741F099234AF5FF3FD0
:101D5000E1053105210519F1E8940894E795D901C9
:101D6000AA2329F4AB2FBE2FF85FD0F310C0FF5F7A
:101D700070F4A695E0F7F73950F019F0FF3A38F40F
:101D80009F779F930DD00F9007FC9058089546F0D1
:101D90000C94D70D60E070E080E89FE308954FE772
:101DA0009F775F934F933F932F930E948A0F2F91BA
:101DB0003F914F915F910E94220E0C94E70E29F4FF
:101DC00016F00C94D10D0C941B0E0C94D70D0E94A0
:101DD000010EA8F39638A0F707F80F92E8942BE3CA
:101DE0003AEA48EB5FE70E94380E0F920F920F928B
:101DF0004DB75EB70F920E94D20FE8E2F1E00E9469
:101E0000190F4F915F91EF91FF91E595EE1FFF1F25
:101E100049F0FE57E0684427EE0F441FFA95E1F7BA
:101E20004195550B0E944C0F0F9007FE0C94400FEC
:101E30000895DF93CF931F930F93FF92EF92DF925A
:101E40007B018C01689406C0DA2EEF010E94350EEA
:101E5000FE01E894A5912591359145915591A6F300
:101E6000EF010E94090DFE019701A801DA9469F7BC
:101E7000DF90EF90FF900F911F91CF91DF91089528
:101E80009B01AC0160E070E080E89FE30C940610D9
:101E90000C94D10D0C9478100E94010ED8F3992364
:101EA000C9F3940F511DA3F39150504094F059F091
:101EB000882332F0660F771F881F91505040C1F77A
:101EC0009E3F51052CF7880F911D9695879597F9A0
:101ED00008955F3FACF0983E9CF0BB2786957795C0
:101EE0006795B79508F4B1609395C1F7BB0F58F7A4
:101EF00011F460FFE8CF6F5F7F4F8F4F9F4FE3CFAD
:101F00000C941C0E16F00C9478100C94D70D689459
:101F10000C94D10D0E94010EA8F39923C1F3AEF3E6
:101F2000DF93CF931F930F93FF92C92FDD27882351
:101F30002AF02197660F771F881FDAF720E030E03C
:101F400040E85FEB9FE3883920F0803E38F021962F
:101F50008F770E94F20CE0E5F1E004C00E94F20CE1
:101F6000EDE7F1E00E94190F8B01BE01EC01FB2EA1
:101F70006F5771097595771F880B990B0E94960D05
:101F800028E132E741E35FE30E94350EAF2D98016F
:101F9000AE01FF900F911F91CF91DF910E94090D2B
:101FA0000C94E80DFA01DC01AA0FBB1F9B01AC01E8
:101FB000BF5728F4222733274427507820C0B75131
:101FC00090F4AB2F0024469537952795011CA395D7
:101FD000D2F3002071F0220F331F441FB395DAF3C0
:101FE0000ED00C94F10C61307105A0E88A07B94657
:101FF00030F49B01AC0166277727882790783096CC
:1020000021F0208331834283538308950E941A1064
:102010000C94E80D0E94E10D58F00E94DA0D40F09A
:1020200029F45F3F29F00C94D10D51110C941C0E32
:102030000C94D70D0E94F90D68F39923B1F3552341
:1020400091F3951B550BBB27AA27621773078407CB
:1020500038F09F5F5F4F220F331F441FAA1FA9F361
:1020600035D00E2E3AF0E0E832D091505040E6954F
:10207000001CCAF72BD0FE2F29D0660F771F881FB0
:10208000BB1F261737074807AB07B0E809F0BB0BA3
:10209000802DBF01FF2793585F4F3AF09E3F5105B7
:1020A00078F00C94D10D0C941C0E5F3FE4F3983E35
:1020B000D4F3869577956795B795F7959F5FC9F7A0
:1020C000880F911D9695879597F90895E1E0660F21
:1020D000771F881FBB1F621773078407BA0720F09A
:1020E000621B730B840BBA0BEE1F88F7E095089503
:1020F0009F3F31F0915020F4879577956795B7957C
:10210000880F911D9695879597F90895EE0FFF1FFB
:102110000024001C0BBE0790F691E02D099411E0FD
:10212000C9E5D1E004C0FE010E9486102196CA359F
:08213000D107C9F7F894FFCFB5
:102138000000D90420000000000086018A024F0236
:08214800D3013302C8010000BD
:00000001FF
